{
  "contractName": "Exercice",
  "abi": [
    {
      "inputs": [],
      "stateMutability": "nonpayable",
      "type": "constructor"
    },
    {
      "inputs": [],
      "name": "owner",
      "outputs": [
        {
          "internalType": "address",
          "name": "",
          "type": "address"
        }
      ],
      "stateMutability": "view",
      "type": "function"
    },
    {
      "inputs": [
        {
          "internalType": "address",
          "name": "_client",
          "type": "address"
        },
        {
          "internalType": "uint256",
          "name": "_SKU",
          "type": "uint256"
        }
      ],
      "name": "commander",
      "outputs": [],
      "stateMutability": "nonpayable",
      "type": "function"
    },
    {
      "inputs": [
        {
          "internalType": "address",
          "name": "_client",
          "type": "address"
        }
      ],
      "name": "expedier",
      "outputs": [],
      "stateMutability": "nonpayable",
      "type": "function"
    },
    {
      "inputs": [
        {
          "internalType": "address",
          "name": "_client",
          "type": "address"
        }
      ],
      "name": "livre",
      "outputs": [],
      "stateMutability": "nonpayable",
      "type": "function"
    },
    {
      "inputs": [
        {
          "internalType": "address",
          "name": "_client",
          "type": "address"
        }
      ],
      "name": "getSKU",
      "outputs": [
        {
          "internalType": "uint256",
          "name": "",
          "type": "uint256"
        }
      ],
      "stateMutability": "view",
      "type": "function"
    },
    {
      "inputs": [
        {
          "internalType": "address",
          "name": "_newOwner",
          "type": "address"
        }
      ],
      "name": "setOwner",
      "outputs": [],
      "stateMutability": "nonpayable",
      "type": "function"
    },
    {
      "inputs": [
        {
          "internalType": "address",
          "name": "_client",
          "type": "address"
        }
      ],
      "name": "getEtape",
      "outputs": [
        {
          "internalType": "enum Exercice.etape",
          "name": "",
          "type": "uint8"
        }
      ],
      "stateMutability": "view",
      "type": "function"
    }
  ],
  "bytecode": "0x608060405234801561001057600080fd5b50336000806101000a81548173ffffffffffffffffffffffffffffffffffffffff021916908373ffffffffffffffffffffffffffffffffffffffff160217905550610976806100606000396000f3fe608060405234801561001057600080fd5b506004361061007d5760003560e01c80636c8a098d1161005b5780636c8a098d146100d65780638da5cb5b146101065780639ec4622f14610124578063ec1b521e146101545761007d565b806313af403514610082578063178d2a7b1461009e57806325bc60a0146100ba575b600080fd5b61009c60048036038101906100979190610649565b610170565b005b6100b860048036038101906100b39190610676565b6102b1565b005b6100d460048036038101906100cf9190610649565b61035f565b005b6100f060048036038101906100eb9190610649565b61045b565b6040516100fd919061079f565b60405180910390f35b61010e6104a7565b60405161011b9190610729565b60405180910390f35b61013e60048036038101906101399190610649565b6104cb565b60405161014b9190610744565b60405180910390f35b61016e60048036038101906101699190610649565b610524565b005b60008054906101000a900473ffffffffffffffffffffffffffffffffffffffff1673ffffffffffffffffffffffffffffffffffffffff163373ffffffffffffffffffffffffffffffffffffffff16146101fe576040517f08c379a00000000000000000000000000000000000000000000000000000000081526004016101f59061075f565b60405180910390fd5b600073ffffffffffffffffffffffffffffffffffffffff168173ffffffffffffffffffffffffffffffffffffffff16141561026e576040517f08c379a00000000000000000000000000000000000000000000000000000000081526004016102659061077f565b60405180910390fd5b806000806101000a81548173ffffffffffffffffffffffffffffffffffffffff021916908373ffffffffffffffffffffffffffffffffffffffff16021790555050565b60006040518060400160405280838152602001600060028111156102d8576102d761082c565b5b815250905080600160008573ffffffffffffffffffffffffffffffffffffffff1673ffffffffffffffffffffffffffffffffffffffff1681526020019081526020016000206000820151816000015560208201518160010160006101000a81548160ff021916908360028111156103525761035161082c565b5b0217905550905050505050565b60008054906101000a900473ffffffffffffffffffffffffffffffffffffffff1673ffffffffffffffffffffffffffffffffffffffff163373ffffffffffffffffffffffffffffffffffffffff16146103ed576040517f08c379a00000000000000000000000000000000000000000000000000000000081526004016103e49061075f565b60405180910390fd5b6002600160008373ffffffffffffffffffffffffffffffffffffffff1673ffffffffffffffffffffffffffffffffffffffff16815260200190815260200160002060010160006101000a81548160ff021916908360028111156104535761045261082c565b5b021790555050565b6000600160008373ffffffffffffffffffffffffffffffffffffffff1673ffffffffffffffffffffffffffffffffffffffff168152602001908152602001600020600001549050919050565b60008054906101000a900473ffffffffffffffffffffffffffffffffffffffff1681565b6000600160008373ffffffffffffffffffffffffffffffffffffffff1673ffffffffffffffffffffffffffffffffffffffff16815260200190815260200160002060010160009054906101000a900460ff169050919050565b60008054906101000a900473ffffffffffffffffffffffffffffffffffffffff1673ffffffffffffffffffffffffffffffffffffffff163373ffffffffffffffffffffffffffffffffffffffff16146105b2576040517f08c379a00000000000000000000000000000000000000000000000000000000081526004016105a99061075f565b60405180910390fd5b60018060008373ffffffffffffffffffffffffffffffffffffffff1673ffffffffffffffffffffffffffffffffffffffff16815260200190815260200160002060010160006101000a81548160ff021916908360028111156106175761061661082c565b5b021790555050565b60008135905061062e81610912565b92915050565b60008135905061064381610929565b92915050565b60006020828403121561065f5761065e61085b565b5b600061066d8482850161061f565b91505092915050565b6000806040838503121561068d5761068c61085b565b5b600061069b8582860161061f565b92505060206106ac85828601610634565b9150509250929050565b6106bf816107cb565b82525050565b6106ce8161081a565b82525050565b60006106e16025836107ba565b91506106ec82610860565b604082019050919050565b6000610704602a836107ba565b915061070f826108af565b604082019050919050565b61072381610810565b82525050565b600060208201905061073e60008301846106b6565b92915050565b600060208201905061075960008301846106c5565b92915050565b60006020820190508181036000830152610778816106d4565b9050919050565b60006020820190508181036000830152610798816106f7565b9050919050565b60006020820190506107b4600083018461071a565b92915050565b600082825260208201905092915050565b60006107d6826107f0565b9050919050565b60008190506107eb826108fe565b919050565b600073ffffffffffffffffffffffffffffffffffffffff82169050919050565b6000819050919050565b6000610825826107dd565b9050919050565b7f4e487b7100000000000000000000000000000000000000000000000000000000600052602160045260246000fd5b600080fd5b7f5b5741524e494e475d202d2d2d204e4f54204f574e4552202d2d2d205b57415260008201527f4e494e475d000000000000000000000000000000000000000000000000000000602082015250565b7f5b5741524e494e475d202d2d2d20494e56414c494420414452455353202d2d2d60008201527f205b5741524e494e475d00000000000000000000000000000000000000000000602082015250565b6003811061090f5761090e61082c565b5b50565b61091b816107cb565b811461092657600080fd5b50565b61093281610810565b811461093d57600080fd5b5056fea2646970667358221220ba8c89e6a831ebc687d9603d95df8c33c8dc53fb3d9d8e2f68619debc0a519f164736f6c63430008070033",
  "immutableReferences": {},
  "source": "pragma solidity 0.8.7;\n\n\ncontract Exercice {\n\n  address public owner;\n\n  constructor(){\n    owner = msg.sender;\n  }\n\n  modifier onlyOwner() {\n    require(msg.sender == owner, \"[WARNING] --- NOT OWNER --- [WARNING]\");\n    _;\n  }\n\n  // commande = 0\n  // expedie = 1\n  // livre = 2\n\n  enum etape {commande, expedie, livre}\n\n\n  // chaque produit a un identifiant unique et une tape\n  struct produit {\n    //produit\n    uint _SKU;\n    //produit\n    Exercice.etape _etape;\n  }\n\n  mapping(address => produit) CommandesClient;\n\n  //lorsque que l'utilisateur commande le produit l'tape passe  commander\n\n  function commander(address _client, uint _SKU) public {\n    produit memory p = produit(_SKU, etape.commande);\n    CommandesClient[_client] = p;\n  }\n\n  // l'tape pour un objet (x) command par un client (x) est maintenant en expedition\n  // EXPEDIER NE PEUT ETRE APPELER QUE PAR LE OWNER\n\n  function expedier(address _client) external onlyOwner {\n    CommandesClient[_client]._etape = etape.expedie;\n  }\n\n  // l'tape pour un objet (x) command par un client (x) est maintenant en livr\n  // LIVRER NE PEUT ETRE APPELER QUE PAR LE OWNER\n\n  function livre(address _client) external onlyOwner {\n    CommandesClient[_client]._etape = etape.livre;\n  }\n\n  // permet de recuperer le SKU de l'objet rattach  un client\n\n  function getSKU(address _client) public view returns(uint){\n    return CommandesClient[_client]._SKU;\n  }\n\n  function setOwner(address _newOwner) external onlyOwner {\n    require(_newOwner != address(0), \"[WARNING] --- INVALID ADRESS --- [WARNING]\");\n    owner = _newOwner;\n  }\n\n  function getEtape(address _client) public view returns(etape){\n    return CommandesClient[_client]._etape;\n  }\n\n}",
  "sourcePath": "/home/tenzou/IdeaProjects/trufflemarketplace1/contracts/Marketplace.sol",
  "compiler": {
    "name": "solc",
    "version": "0.8.7+commit.e28d00a7.Emscripten.clang"
  },
  "schemaVersion": "3.4.10",
  "updatedAt": "2022-10-29T00:30:58.183Z",
  "devdoc": {
    "kind": "dev",
    "methods": {},
    "version": 1
  },
  "userdoc": {
    "kind": "user",
    "methods": {},
    "version": 1
  }
}